:100000000C9463000C948B000C948B000C948B006C
:100010000C948B000C948B000C948B000C948B0034
:100020000C948B000C948B000C948B000C948B0024
:100030000C948B000C948B000C948B000C948B0014
:100040000C94A8060C948B000C948B000C948B00E1
:100050000C948B000C948B000C948B000C948B00F4
:100060000C94F2060C948B00000000002400270082
:100070002A0000000000250028002B0000000000DE
:1000800023002600290004040404040404040202DA
:100090000202020203030303030301020408102007
:1000A0004080010204081020010204081020000012
:1000B0000008000201000003040700000000000027
:1000C000000011081E0D11241FBECFEFD8E0DEBFC7
:1000D000CDBF23E0A6E8B1E001C01D92AA32B2076D
:1000E000E1F711E0A0E0B1E0E2E5FFE102C0059038
:1000F0000D92A638B107D9F710E0C2E6D0E004C0EF
:100100002197FE010E94870DC136D107C9F70E94D1
:10011000FB080C949C0F0C94000096E0899FD00182
:100120001124A954BD4F90967C936E935F9791E0F4
:1001300091969C939197E0912403F09125039091DF
:100140002303992339F0309751F0811108C0809131
:10015000D3020994309719F05C968C91FACF0895E8
:10016000CF92DF92EF92FF920F931F9396E0899FB9
:10017000F0011124E954FD4F11A2278D30A1213047
:10018000310551F178F02230310509F451C02330A6
:10019000310509F452C01F910F91FF90EF90DF904D
:1001A000CF9008956623B9F361E070E00E948D005E
:1001B0002FB7F89480914D0290914E02A0914F027A
:1001C000B09150022FBF80930F0390931003A09320
:1001D0001103B0931203DFCF9FB7F894C0904D0284
:1001E000D0904E02E0904F02F09050029FBF0091DD
:1001F0000F03109110032091110330911203C01AC4
:10020000D10AE20AF30A009121031091220330E09F
:1002100020E00C151D052E053F0550F462E070E04E
:100220001F910F91FF90EF90DF90CF900C948D0075
:100230006111B1CF63E070E0F3CF70E060E0F0CF28
:10024000833081F028F4813099F08230A9F008954C
:100250008730A9F08830C9F08430B1F480918000F3
:100260008F7D03C0809180008F77809380000895F8
:1002700084B58F7784BD089584B58F7DFBCF809141
:10028000B0008F778093B00008958091B0008F7D8B
:10029000F9CFCF93DF93282F30E0F901E255FF4FDC
:1002A0008491F901E656FF4FD491F901EA57FF4FC7
:1002B000C491CC23A1F081110E942001EC2FF0E029
:1002C000EE0FFF1FE458FF4FA591B491EC91ED2381
:1002D00081E090E009F480E0DF91CF91089580E023
:1002E00090E0FACF1F93CF93DF93282F30E0F901EE
:1002F000E255FF4F8491F901E656FF4FD491F90181
:10030000EA57FF4FC491CC23A9F0162F81110E9408
:100310002001EC2FF0E0EE0FFF1FEE58FF4FA591EC
:10032000B4918FB7F894EC91111108C0D095DE23E9
:10033000DC938FBFDF91CF911F910895DE2BF8CF13
:10034000CF93DF9390E0FC01E656FF4F24918A574C
:100350009F4FFC0184918823C9F090E0880F991F7A
:10036000FC01E859FF4FA591B491FC01EE58FF4FF5
:10037000C591D49161110DC09FB7F8948C912095CF
:1003800082238C938881282328839FBFDF91CF917C
:100390000895623051F49FB7F8943C91822F809574
:1003A00083238C93E8812E2BEFCF8FB7F894EC91B9
:1003B0002E2B2C938FBFEACF3FB7F8948091490240
:1003C00090914A02A0914B02B0914C0226B5A89B95
:1003D00005C02F3F19F00196A11DB11D3FBFBA2FD7
:1003E000A92F982F8827BC01CD01620F711D811D97
:1003F000911D42E0660F771F881F991F4A95D1F71C
:1004000008958F929F92AF92BF92CF92DF92EF9218
:10041000FF924B015C010E94DC016B017C010E9498
:10042000DC016C197D098E099F09683E73408105C6
:100430009105A8F321E0821A9108A108B10888EE7D
:10044000C80E83E0D81EE11CF11C81149104A104A4
:10045000B10429F7FF90EF90DF90CF90BF90AF905D
:100460009F908F900895862F642F0C94A001862F63
:10047000642F0C947201862F0C94490108950895FD
:10048000AF92BF92CF92DF92EF92FF920F931F93A2
:10049000CF93DF936C017B018B01040F151FEB01E0
:1004A0005E01AE18BF08C017D10759F06991D60197
:1004B000ED91FC910190F081E02DC6010995892B09
:1004C00079F7C501DF91CF911F910F91FF90EF90C8
:1004D000DF90CF90BF90AF900895FC01448155818B
:1004E000608171818BEA92E00C9440022091EE01D0
:1004F000260F3327331F21323105ECF420911202ED
:10050000FC0190E080E0243069F082E00895A09141
:10051000EE012191AC0142535E4FA40FB52FB11DE6
:100520002C930196861798F38091EE01680F6093E3
:10053000EE0180E0089581E008951092120281E0BA
:10054000809314021092130261E082E10E94720112
:1005500061E083E10E947201E9EBF0E080818E7F2F
:10056000808380818D7F808388E48093B80085E4D8
:100570008093BC000895CF93DF9391E09093CD01D9
:100580008823B9F0C091B800D091BA008091BC0026
:100590008A7B8093BC0060E082E10E94720160E08F
:1005A00083E10E9472010E949D02D093BA00C09321
:1005B000B800DF91CF9108950895E0913F028091B6
:1005C0003E02E81730F4F0E0E855FE4F808190E0FD
:1005D00008958FEF9FEF089590913F0280913E0222
:1005E0002FEF3FEF981748F4E92FF0E0E855FE4F62
:1005F000208130E09F5F90933F02C9010895809170
:100600003E0290913F02891B990B0895CF92DF9291
:10061000EF92FF920F931F93CF93DF937C01CB0157
:100620008A012091A701222389F0EB016B01C40EFE
:10063000D51ECC15DD0569F06991D701ED91FC91CE
:100640000190F081E02DC7010995F3CF642F0E943E
:100650007602C801DF91CF911F910F91FF90EF902B
:10066000DF90CF900895CF93DF931F92CDB7DEB781
:1006700069832091A7012223F9F020913C022032C6
:1006800058F021E030E0FC013383228390E080E0E9
:100690000F90DF91CF91089580913D02E82FF0E017
:1006A000E957FE4F998190838F5F80933D0280933D
:1006B0003C0281E090E0ECCF61E0CE0101960E9427
:1006C0007602F7CFCF92DF92EF92FF920F931F93B4
:1006D000CF93DF93FC01C48121E02093A701C09355
:1006E000860110923D0210923C028385682B81E5C1
:1006F00092E00E943303D0913C02D13208F092C0C4
:100700000E94DC016B017C0180911202811165C0A5
:1007100082E08093120281E0809314028FEF809335
:10072000110210923602D0933502A7E8B1E0E5E15C
:10073000F2E080E0D81385C0109237028091370232
:10074000CC0FC82BC093370280911302813009F07F
:100750007CC0109213020E94DC016B017C0180912D
:1007600037028093BB008091C9019091CA01A0918A
:10077000CB01B091CC01892B8A2B8B2B99F00E9455
:10078000DC010091C9011091CA012091CB01309187
:10079000CC016C197D098E099F09061717072807D8
:1007A0003907E0F18091BC0083FDD9CF85EC8093BF
:1007B000BC000E94DC016B017C018091120282303E
:1007C00009F445C0809111028F3F61F180911102BF
:1007D000803241F18091110225C08091C901909130
:1007E000CA01A091CB01B091CC01892B8A2B8B2B14
:1007F00009F48ACF0E94DC010091C9011091CA015D
:100800002091CB013091CC016C197D098E099F0993
:10081000061717072807390708F076CF8091C80117
:100820000E94BB0210923D0210923C021092A7015E
:10083000DF91CF911F910F91FF90EF90DF90CF90BC
:1008400008959D9191938F5F75CF85EEB0CF809184
:10085000C9019091CA01A091CB01B091CC01892B23
:100860008A2B8B2B09F4A9CF0E94DC010091C901CE
:100870001091CA012091CB013091CC016C197D09F6
:100880008E099F09061717072807390708F095CF23
:10089000C5CF089590E080E008950F931F93CF9304
:1008A0008C01C62F0E9462036C2F6460C8010E94F5
:1008B00062036C2F6B7FC8010E94620383EC90E09F
:1008C0000197F1F7CF911F910F9108950F931F9307
:1008D000CF93DF938C01D62FC42F607F642B0E94AF
:1008E0004D0480E1D89FB00111246C2BC801DF9129
:1008F000CF911F910F910C944D04CF93DF93CDB7FF
:10090000DEB728970FB6F894DEBF0FBECDBF98E0D4
:10091000E1E2F1E0DE01119601900D929A95E1F786
:100920009091B302961710F46FEF690F262F30E005
:10093000220F331F41E050E04C0F5D1F240F351F85
:10094000F9016081680F606840E08BEA92E02896C8
:100950000FB6F894DEBF0FBECDBFDF91CF910C94E0
:10096000660440E061E08BEA92E00E9466048BE35B
:100970009FE10197F1F7089541E00E94660481E04C
:1009800090E00895FC0124813581232B39F421E086
:10099000FB018081882349F020E007C0808191819C
:1009A0000E948C0F21E0892BB9F7822F08950F93B5
:1009B0001F93CF93DF93EC0188819981009759F0C1
:1009C0002A813B812617370730F081E0DF91CF91F4
:1009D0001F910F9108958B016F5F7F4F0E94C60E8C
:1009E000009759F0998388831B830A832C813D816A
:1009F000232B59F7FC011082E8CF80E0E7CFCF939B
:100A0000DF93EC0188819981009711F00E943D0EDF
:100A1000198218821D821C821B821A82DF91CF915B
:100A20000895EF92FF920F931F93CF93DF93EC0102
:100A30007B018A01BA010E94D70481110BC0CE014B
:100A40000E94FF04CE01DF91CF911F910F91FF9083
:100A5000EF9008951D830C83B701888199810E94CE
:100A6000950FF0CFFB0101900020E9F73197AF011E
:100A7000461B570B0C941105CF93DF93EC01FB0140
:100A80008617970749F0608171816115710541F002
:100A9000448155810E941105CE01DF91CF910895C7
:100AA0000E94FF04F9CFFC0111821082138212828E
:100AB000158214820C943C050F931F93CF93DF9300
:100AC00026E0269FF001279FF00D112442E1489F68
:100AD0009001499F300D1124E20FF31FE35AFD4F9F
:100AE000248135814091A9025091AA02241735072B
:100AF00009F055C08B01EC01808191816091A502C4
:100B00007091A602009769F06115710539F4232BE5
:100B1000B1F0FC019081892F90E00FC00E948C0FF2
:100B20000CC06115710559F0232B49F0FB012081A0
:100B300030E088279927821B930B892B81F522E1CE
:100B40002C9FC0012D9F900D1124C6E0C09F9001E5
:100B5000C19F300D1124820F931F63E972E0835A05
:100B60009D4F0E943C0580910101909102010196E8
:100B7000909302018093010162E070E00E94730D86
:100B8000C89FB001C99F700D112467567D4F83E93E
:100B900092E0DF91CF911F910F910C943C05DF9172
:100BA000CF911F910F910895FC0111821082138241
:100BB000128215821482FB0101900020E9F731971F
:100BC000AF01461B570B0C941105FC0180819181EC
:100BD000009711F00C943D0E0895CF92DF92EF92A2
:100BE000FF920F931F93CF93DF93CDB7DEB72C9770
:100BF0000FB6F894DEBF0FBECDBF61E571E0CE0148
:100C000001960E94D405E0909302F0909402E114C2
:100C1000F10409F460C00091970210919802011547
:100C20001105B9F08D819E81080F191FB801CE0101
:100C300001960E94D704882309F44DC029813A8186
:100C40008D819E81B701820F931F0E94950F1E8395
:100C50000D83BE016F5F7F4FCE0107960E94530543
:100C6000CE0101960E94E5050E94B10460E080E09B
:100C70000E947D04CE0107960E946D028DE5E82E4C
:100C800082E0F82E11E0670100E0612F802F0E94C2
:100C90007D04C6010E946D020F5F86E0C80ED11C64
:100CA000033099F782E1E80EF11C1F5F143059F709
:100CB000CE0107960E94E5052C960FB6F894DEBF8C
:100CC0000FBECDBFDF91CF911F910F91FF90EF909D
:100CD000DF90CF900895CE0101960E94FF04B9CF16
:100CE00085ED8093BC008091C9019091CA01A091CB
:100CF000CB01B091CC010796A11DB11D23E0B695A3
:100D0000A795979587952A95D1F72091BC0024FD4A
:100D100003C01092120208954091C9015091CA0176
:100D20006091CB017091CC01452B462B472B69F389
:100D30000097A105B10541F02AE22A95F1F700C01C
:100D40000197A109B109E1CF8091C8010C94BB02C0
:100D50001F920F920FB60F9211242F933F938F93F0
:100D60009F93AF93BF9380914D0290914E02A091BB
:100D70004F02B09150023091480223E0230F2D37EB
:100D800058F50196A11DB11D2093480280934D0294
:100D900090934E02A0934F02B0935002809149026B
:100DA00090914A02A0914B02B0914C020196A11D74
:100DB000B11D8093490290934A02A0934B02B093D5
:100DC0004C02BF91AF919F918F913F912F910F90C6
:100DD0000FBE0F901F90189526E8230F0296A11DB5
:100DE000B11DD2CF1F920F920FB60F9211242F93E5
:100DF0003F934F935F936F937F938F939F93AF93A3
:100E0000BF93EF93FF938091B900887F803609F4F8
:100E10004AC0F0F5883209F4A7C018F5803109F40A
:100E20009BC0B8F4882309F4F9C0883009F494C051
:100E3000FF91EF91BF91AF919F918F917F916F91B2
:100E40005F914F913F912F910F900FBE0F901F9088
:100E50001895883109F488C0803251F780931102C7
:100E600014C0803409F49DC040F48033B9F3883352
:100E7000F9F68093110285ECB0C0803509F485C085
:100E8000883509F496C0883499F60E947006D0CF50
:100E9000883909F48CC038F5883729F050F4883641
:100EA00011F0803729F683E080931202109210022D
:100EB00057C0883809F47BC0803919F0803809F0B0
:100EC000B7CF80911002803208F071C0E09110021B
:100ED00081E08E0F809310028091BB00F0E0E05122
:100EE000FE4F80833DC0803B39F0E0F4803A09F446
:100EF00079C0883A09F09CCF84E080931202109266
:100F0000EF011092EE01E0913A02F0913B02099557
:100F10008091EE0181110FC081E08093EE0110926B
:100F2000CE0109C0803C09F4A6CF883C09F4A3CFC8
:100F3000883B09F07DCFE091EF0181E08E0F809337
:100F4000EF01F0E0E253FE4F80818093BB0090916F
:100F5000EF018091EE0129C0809137028093BB00A0
:100F600085EC8093BC0064CF90913602809135026D
:100F7000981758F5E091360281E08E0F8093360283
:100F8000F0E0EB5EFD4F8081E9CFE091360281E039
:100F90008E0F809336028091BB00F0E0EB5EFD4F38
:100FA000808390913602809135029817C8F285E8C7
:100FB000D8CFE091360281E08E0F80933602809187
:100FC000BB00F0E0EB5EFD4F808380911402811145
:100FD0005CCF81E08093130284EA8093BC0010927E
:100FE000120226CF85EC8093BC00109212028091F1
:100FF0001002803230F4E0911002F0E0E051FE4F38
:1010000010826091100270E0E0913802F091390294
:1010100080EF91E00995109210020ACF1092110210
:1010200034CFCF93DF9300D0CDB7DEB71092540208
:101030001092530288EE93E0A0E0B0E08093550256
:1010400090935602A0935702B09358028DE291E01C
:1010500090935202809351021092B9021092BD02F5
:101060001092BC021092BE028BE491E09093B80201
:101070008093B702E3EDF2E01082148213821582AE
:10108000369683E0EF30F807B9F787E091E0909368
:101090001A038093190383E091E090931C038093DB
:1010A0001B0384E080931D0380931E032BE031E03B
:1010B00030931803209317032AE030E03093200385
:1010C00020931F0324EF31E0309322032093210368
:1010D000109225031092240310921303109214030C
:1010E0001092150310921603109223031092AE0271
:1010F0001092AD022FE331E03093AC022093AB02AB
:1011000098E39093AF0294E19093B4028093B50278
:101110001092B6021092A6021092A5021092A80296
:101120001092A7021092AA021092A9028FEF89834F
:101130001A82BE016F5F7F4F85EA92E00E943205FE
:1011400069E571E089E992E00E94D4056BE571E000
:101150008FE992E00E94D4058091010190910201F3
:1011600062E070E00E94730D26E0289FB001299F85
:10117000700D112467567D4F83E992E00E9453055C
:1011800065EA72E08DE592E00E94530565EA72E03F
:1011900083E692E00E94530565EA72E089E692E0F8
:1011A0000E94530565EA72E08FE692E00E945305C3
:1011B00065EA72E085E792E00E94530565EA72E015
:1011C0008BE792E00E94530565EA72E081E892E0C5
:1011D0000E94530565EA72E087E892E00E94530599
:1011E00065EA72E08DE892E00E9453050F900F903F
:1011F000DF91CF910895CF93DF93CDB7DEB72E97D0
:101200000FB6F894DEBF0FBECDBF789484B5826070
:1012100084BD84B5816084BD85B5826085BD85B59A
:10122000816085BD80916E00816080936E00109218
:101230008100809181008260809381008091810093
:101240008160809381008091800081608093800024
:101250008091B10084608093B1008091B000816082
:101260008093B00080917A00846080937A008091AE
:101270007A00826080937A0080917A008160809306
:101280007A0080917A00806880937A001092C10081
:1012900010923F0210923E0210923D0210923C02C8
:1012A0000E949D028EE392E090933B0280933A026B
:1012B0008FE392E090933902809338021092B0024B
:1012C0008091B502823018F098E09093B00280933C
:1012D000B30262E370E080E090E00E94010260915E
:1012E000B6028BEA92E00E94620368EE73E080E04F
:1012F00090E00E94010260E38BEA92E00E944D04BC
:101300000BE416E4C8010197F1F760E38BEA92E081
:101310000E944D04C8010197F1F760E38BEA92E067
:101320000E944D0483E592E00197F1F760E28BEAB9
:1013300092E00E944D046091B002606240E08BEA4E
:1013400092E00E94660484E08093B10240E06CE089
:101350008BEA92E00E9466040E94B10482E08093CE
:10136000B20240E066E08BEA92E00E94660440E050
:1013700062E08BEA92E00E9466048BE39FE10197B2
:10138000F1F788E08093B60260E08BEA92E00E9479
:1013900062030E94ED0581E0809323038FB7F894E8
:1013A00040914D0250914E0260914F027091500257
:1013B0008FBF8091130390911403A0911503B091F6
:1013C0001603481B590B6A0B7B0B80911F039091EE
:1013D0002003B0E0A0E084179507A607B70708F040
:1013E00015C110E080911D03181760F4E0911903F6
:1013F000F0911A03E10FF11D62E080810E94A001CB
:101400001F5FF0CF912C80911E03981608F063C0E7
:10141000E92CF12CE0911B03F0911C03EE0DFF1D54
:1014200061E080810E94A001E0911B03F0911C0308
:10143000EE0DFF1D60E080810E94720181E090E06E
:10144000A0E0B0E0092C04C0880F991FAA1FBB1FA1
:101450000A94D2F75C016C01C094D094812C8091E5
:101460001D03881608F5082D10E0E0911903F0918E
:101470001A03E00FF11F80810E9449010C5F1F4F8A
:10148000000F111FF801E954FD4F892B41F48081B1
:1014900091818A299B29918380838394E0CF8081E5
:1014A00091818C219D21F7CFE0911B03F0911C03CA
:1014B000EE0DFF1D61E080810E94720180911B038F
:1014C00090911C03E80EF91E60E0F70180810E94F4
:1014D000A001939498CFF7EBEF2EF2E0FF2E670177
:1014E000F601878D90A1892B31F4148E2FEF3FEFF9
:1014F000368F258F11A236E0C30ED11C83EF92E008
:101500008C159D0569F7B12C80911D03B81608F064
:1015100051C0A12C0B2D10E0000F111F01541D4FC5
:1015200020911E03A21608F043C0F801608171816A
:101530000A2C02C0769567950A94E2F7B29E900154
:1015400011242A0D311DE7EBF2E080E0458D568D28
:101550002417350709F470C28F5F36968A30B1F7C9
:1015600060FF24C0E7EBF2E090E080E0448D4111A1
:1015700018C0E0911703F0911803E20FF31F4081A8
:1015800056E0589FF001599FF00D1124E954FD4F8A
:10159000448F368F258F10A2178E61E00E94B00015
:1015A00005C0019636968A30910501F7A394B8CF0D
:1015B000B394AACF80E0F70191A19111892FF6E0B1
:1015C000EF0EF11CCE14DF04B1F79FB7F8944091F1
:1015D0004D0250914E0260914F02709150029FBF98
:1015E00040931303509314036093150370931603F1
:1015F000882361F08091D802882341F08091D6023F
:101600009091D702E091D302019719F01092230331
:10161000E0E080910001882309F4A9C1EE23D9F00C
:10162000E053E930B0F40E2E000CFF0BE65EF44FF1
:101630000C94870D230B890C8C0C8F0C940C970C3D
:101640009A0C9F0CA20C70E060E090E080E00E9499
:101650005C050E94ED0520910101309102013E8759
:101660002D87263031050CF44CC17DE5272E72E024
:10167000372E8101992493945801F12CE12CD12C1F
:10168000C12C6BE571E0C5010E94C204882319F0EA
:101690003FEFE31AF30A5FEFC51AD50A86E0A80EFA
:1016A000B11C93E0C916D10461F7E3E0EE16F10432
:1016B00011F4909247020E5E1F4FF2E003391F07AC
:1016C000D9F66DE5462E62E0562E99249394520188
:1016D000F12CE12CD12CC12C6BE571E0C5010E94ED
:1016E000C204882319F02FEFE21AF20A3FEFC31A5F
:1016F000D30A52E1A50EB11C83E0C816D10461F7EC
:1017000093E0E916F10411F490924602E6E04E0EE1
:10171000511CFFE64F16F2E05F06C9F65DE5652E47
:1017200052E0752EF12CE12CDD24D3946BE571E0B1
:10173000C3010E94C204882349F02FEFE21AF20A83
:1017400033E0E316F10411F4D092450258E1650E3E
:10175000711C85EA92E08615970541F76BE571E00B
:1017600089E692E00E94C20421E090E0811101C06C
:1017700020E0E22EF92E6BE571E085E792E00E9411
:10178000C204882319F09FEFE91AF90A6BE571E0AA
:1017900081E892E00E94C204882339F0E2E0EE166C
:1017A000F10419F481E0809345024DE5E42E42E016
:1017B000F42E4701D12CC12CB12CA12C69E571E08C
:1017C000C4010E94C204882319F0FFEFCF1ADF0A78
:1017D0002FEFA21AB20A36E0830E911C53E0A51631
:1017E000B10461F783E0C816D10419F491E0909335
:1017F0004302E2E1EE0EF11C0E151F05D1F60DE5D8
:1018000012E0992493945801F12CE12CD12CC12C95
:1018100069E571E0C5010E94C204882319F0FFEF59
:10182000EF1AFF0A2FEFC21AD20A32E1A30EB11C3F
:1018300053E0C516D10461F783E0E816F10411F412
:10184000909242020A5F1F4F40165106E1F610E0E7
:1018500000E0FF24F39469E571E0C1010E94C20435
:10186000882339F00F5F1F4F0330110511F4F092F8
:10187000410298E1290E311C6214730461F769E595
:1018800071E089E692E00E94C20421E090E08111BB
:1018900001C020E0022F192F69E571E085E792E091
:1018A0000E94C204882311F00F5F1F4F69E571E0A9
:1018B00081E892E00E94C204882331F002301105D1
:1018C00019F481E08093410280914702811108C0A0
:1018D00080914602811104C0809145028823A9F1BC
:1018E00081E08093440210920001ED85FE853A97D5
:1018F00044F080914002811104C080914402882309
:1019000099F180E090E0892B09F445CD0E94000018
:1019100042CD61E070E099CE62E070E096CE70E07A
:1019200060E081E090E093CE61E070E0FACF62E0A9
:1019300070E0F7CF70E060E082E090E088CE61E098
:1019400070E0FACF62E070E0F7CF8091430281113E
:1019500008C080914202811104C080914102882315
:1019600021F281E08093400210920001CACF68EE1C
:1019700073E080E090E00E9401026DE571E0CE012D
:1019800007960E94D4058091400263E671E08111C0
:1019900006C080914402882331F06DE671E0CE01EB
:1019A00007960E9432050E94B104BE01695F7F4F15
:1019B000CE0101960E9453058D819E8124E130E085
:1019C000281B390BC9019695879561E00E947D041B
:1019D000CE0101960E94E505CE0107960E946D0298
:1019E00067E771E0CE0101960E94D4058D819E814A
:1019F000E4E1F0E0E81BF90BCF019695879562E0F2
:101A00000E947D04CE0101960E94E5054EE050E063
:101A100067E771E08BEA92E00E94400260ED77E0B8
:101A200080E090E00E940102F0E0E0E00995CE0144
:101A300007960E94E50565CF6170B0CDCF93DF9327
:101A4000C3E9D2E02697CE010E94E50582E0CD35BC
:101A5000D807C1F783E992E00E94E5058FE992E09B
:101A60000E94E50589E992E00E94E50585EA92E099
:101A7000DF91CF910C94E5052F923F924F925F92A8
:101A80006F927F928F929F92AF92BF92CF92DF928E
:101A9000EF92FF920F931F93CF93DF93CDB7DEB7F3
:101AA000CA1BDB0B0FB6F894DEBF0FBECDBF099487
:101AB0002A88398848885F846E847D848C849B84DE
:101AC000AA84B984C884DF80EE80FD800C811B81EC
:101AD000AA81B981CE0FD11D0FB6F894DEBF0FBE1B
:101AE000CDBFED01089597FB072E16F4009407D0A3
:101AF00077FD09D00E948D0D07FC05D03EF490952E
:101B000081959F4F0895709561957F4F0895EE0FD1
:101B1000FF1F0590F491E02D0994AA1BBB1B51E116
:101B200007C0AA1FBB1FA617B70710F0A61BB70B4D
:101B3000881F991F5A95A9F780959095BC01CD01F2
:101B400008950F931F93CF93DF938230910510F484
:101B500082E090E0E0912803F091290330E020E05A
:101B6000B0E0A0E0309799F42115310509F44AC09E
:101B7000281B390B24303105D8F58A819B816115EA
:101B8000710589F1FB0193838283FE0111C04081BD
:101B900051810281138148175907E0F0481759070E
:101BA00099F4109761F012960C93129713961C9368
:101BB0003296CF01DF91CF911F910F91089500933D
:101BC000280310932903F4CF2115310551F0421752
:101BD000530738F0A901DB019A01BD01DF01F801CB
:101BE000C1CFEF01F9CF9093290380932803CDCF84
:101BF000FE01E20FF31F8193919322503109398343
:101C00002883D7CF2091260330912703232B41F43B
:101C100020911D0130911E0130932703209326034C
:101C200020911B0130911C012115310541F42DB784
:101C30003EB740911F0150912001241B350BE091CC
:101C40002603F0912703E217F307A0F42E1B3F0BA6
:101C50002817390778F0AC014E5F5F4F241735071E
:101C600048F04E0F5F1F5093270340932603819344
:101C700091939FCFF0E0E0E09CCFCF93DF9300976C
:101C8000E9F0FC01329713821282A0912803B091EF
:101C90002903ED0130E020E01097A1F4208131818B
:101CA000820F931F209126033091270328173907AD
:101CB00009F061C0F0932703E0932603DF91CF91F1
:101CC0000895EA01CE17DF07E8F54A815B819E019E
:101CD00041155105B1F7E901FB83EA834991599117
:101CE000C40FD51FEC17FD0761F480819181029626
:101CF000840F951FE90199838883828193819B8357
:101D00008A83F0E0E0E012968D919C911397009702
:101D1000B9F52D913C911197CD010296820F931F39
:101D200020912603309127032817390739F6309779
:101D300051F51092290310922803B0932703A09322
:101D40002603BCCFD383C28340815181840F951F6A
:101D5000C817D90761F44E5F5F4F88819981480F9A
:101D6000591F518340838A819B81938382832115EC
:101D7000310509F0B0CFF0932903E09328039ECFFB
:101D8000FD01DC01C0CF13821282D7CFB0E0A0E00A
:101D9000ECECFEE00C943E0D8C01009751F4CB016D
:101DA0000E94A10D8C01C801CDB7DEB7E0E10C9413
:101DB0005A0DFC01E60FF71F9C0122503109E21772
:101DC000F30708F49DC0D901CD91DC911197C61796
:101DD000D70798F0C530D10530F3CE0104978617A8
:101DE000970708F3C61BD70B2297C193D1936D9326
:101DF0007C93CF010E943D0ED6CF5B01AC1ABD0A89
:101E00004C018C0E9D1EA0912803B0912903512CEA
:101E1000412CF12CE12C109731F580912603909103
:101E200027038815990509F05CC04616570608F087
:101E300058C080911B0190911C01009741F48DB70F
:101E40009EB740911F0150912001841B950BE8170C
:101E5000F90708F055C0F0932703E0932603F90132
:101E600071836083A0CF8D919C91119712966C9095
:101E7000129713967C901397A815B90559F56C0124
:101E800042E0C40ED11CCA14DB0420F1AC014A1993
:101E90005B09DA011296159780F062827382518392
:101EA0004083D9016D937C93E114F10471F0D70163
:101EB0001396FC93EE93129776CF22968C0F9D1F6C
:101EC000F90191838083F301EFCFF0932903E0932D
:101ED000280369CF4816590608F42C017D01D30167
:101EE0009ACFCB010E94A10D7C01009749F0AE0171
:101EF000B8010E94830FC8010E943D0E870153CF95
:101F000010E000E050CFFB01DC0102C001900D9217
:101F100041505040D8F70895FB01DC018D910190AC
:101F200080190110D9F3990B0895FB01DC01019090
:101F30000D920020E1F7089510E0C2E6D0E004C061
:101F4000FE010E94870D2196C336D107C9F7F89488
:021F5000FFCFC1
:101F5200010100060708090203040530313220336B
:101F6200343520363738202020202000002A0380F4
:101F7200000000400014005400000000003303067B
:101F8200034A04DC02FF02EC02DD0200000000BC96
:101F92000440024A04490400000000330237023BB5
:101FA200025475726E6F3A20004F00580056656CED
:101FB2006861004F2056656E636575210058205692
:101FC200656E63657521005265696E696369616E4C
:061FD200646F2E2E2E00AC
:00000001FF
